:020000040000fa
:080000000002040000000000f2
:020000040000fa
:040008004c030000a5
:020000040000fa
:04000c004c030000a1
:020000040000fa
:040010004c0300009d
:020000040000fa
:040014004c03000099
:020000040000fa
:040018004c03000095
:020000040000fa
:04001c004c03000091
:020000040000fa
:040020004c0300008d
:020000040000fa
:040024004c03000089
:020000040000fa
:040028004c03000085
:020000040000fa
:04002c004c03000081
:020000040000fa
:040030004c0300007d
:020000040000fa
:0400340004030000c1
:020000040000fa
:040038004c03000075
:020000040000fa
:04003c004c03000071
:020000040000fa
:040040004c0300006d
:020000040000fa
:040044004c03000069
:020000040000fa
:040048004c03000065
:020000040000fa
:04004c004c03000061
:020000040000fa
:040050004c0300005d
:020000040000fa
:040054004c03000059
:020000040000fa
:040058004c03000055
:020000040000fa
:04005c004c03000051
:020000040000fa
:040060004c0300004d
:020000040000fa
:040064004c03000049
:020000040000fa
:040068004c03000045
:020000040000fa
:04006c004c03000041
:020000040000fa
:040070004c0300003d
:020000040000fa
:040074002003000065
:020000040000fa
:040078004c03000035
:020000040000fa
:04007c004c03000031
:020000040000fa
:040080004c0300002d
:020000040000fa
:040084004c03000029
:020000040000fa
:040088004c03000025
:020000040000fa
:04008c004c03000021
:020000040000fa
:040090004c0300001d
:020000040000fa
:040094004c03000019
:020000040000fa
:040098004c03000015
:020000040000fa
:04009c004c03000011
:020000040000fa
:0400a0004c0300000d
:020000040000fa
:0400a4004c03000009
:020000040000fa
:0400a8004c03000005
:020000040000fa
:0400ac004c03000001
:020000040000fa
:0400b0004c030000fd
:020000040000fa
:0400b4004c030000f9
:020000040000fa
:0400b8004c030000f5
:020000040000fa
:0400bc004c030000f1
:020000040000fa
:0400c0004c030000ed
:020000040000fa
:0400c4004c030000e9
:020000040000fa
:0400c8004c030000e5
:020000040000fa
:0400cc004c030000e1
:020000040000fa
:0400d0004c030000dd
:020000040000fa
:0400d4004c030000d9
:020000040000fa
:0400d8004c030000d5
:020000040000fa
:0400dc004c030000d1
:020000040000fa
:0400e0004c030000cd
:020000040000fa
:0400e4004c030000c9
:020000040000fa
:0400e8004c030000c5
:020000040000fa
:0400ec004c030000c1
:020000040000fa
:0400f0004c030000bd
:020000040000fa
:0400f4004c030000b9
:020000040000fa
:0400f8004c030000b5
:020000040000fa
:0400fc004c030000b1
:020000040000fa
:040100004c030000ac
:020000040000fa
:040104004c030000a8
:020000040000fa
:040108004c030000a4
:020000040000fa
:04010c004c030000a0
:020000040000fa
:040110004c0300009c
:020000040000fa
:040114004c03000098
:020000040000fa
:040118004c03000094
:020000040000fa
:04011c004c03000090
:020000040000fa
:040120004c0300008c
:020000040000fa
:040124004c03000088
:020000040000fa
:040128004c03000084
:020000040000fa
:04012c004c03000080
:020000040000fa
:040130004c0300007c
:020000040000fa
:040134004c03000078
:020000040000fa
:040138004c03000074
:020000040000fa
:04013c004c03000070
:020000040000fa
:040140004c0300006c
:020000040000fa
:040144004c03000068
:020000040000fa
:040148004c03000064
:020000040000fa
:04014c004c03000060
:020000040000fa
:040150004c0300005c
:020000040000fa
:040154004c03000058
:020000040000fa
:040158004c03000054
:020000040000fa
:04015c004c03000050
:020000040000fa
:040160004c0300004c
:020000040000fa
:040164004c03000048
:020000040000fa
:040168004c03000044
:020000040000fa
:04016c004c03000040
:020000040000fa
:040170004c0300003c
:020000040000fa
:040174004c03000038
:020000040000fa
:040178004c03000034
:020000040000fa
:04017c004c03000030
:020000040000fa
:040180004c0300002c
:020000040000fa
:040184004c03000028
:020000040000fa
:040188004c03000024
:020000040000fa
:04018c004c03000020
:020000040000fa
:040190004c0300001c
:020000040000fa
:040194004c03000018
:020000040000fa
:040198004c03000014
:020000040000fa
:04019c004c03000010
:020000040000fa
:0401a0004c0300000c
:020000040000fa
:0401a4004c03000008
:020000040000fa
:0401a8004c03000004
:020000040000fa
:0401ac004c03000000
:020000040000fa
:0401b0004c030000fc
:020000040000fa
:0401b4004c030000f8
:020000040000fa
:0401b8004c030000f4
:020000040000fa
:0401bc004c030000f0
:020000040000fa
:0401c0004c030000ec
:020000040000fa
:0401c4004c030000e8
:020000040000fa
:0401c8004c030000e4
:020000040000fa
:0401cc004c030000e0
:020000040000fa
:0401d0004c030000dc
:020000040000fa
:0401d4004c030000d8
:020000040000fa
:0401d8004c030000d4
:020000040000fa
:0401dc004c030000d0
:020000040000fa
:0401e0004c030000cc
:020000040000fa
:0401e4004c030000c8
:020000040000fa
:0401e8004c030000c4
:020000040000fa
:0401ec004c030000c0
:020000040000fa
:0401f0004c030000bc
:020000040000fa
:0401f4004c030000b8
:020000040000fa
:0401f8004c030000b4
:020000040000fa
:0401fc004c030000b0
:020000040000fa
:040208004c030000a3
:020000040000fa
:04020c004c0300009f
:020000040000fa
:040210004c0300009b
:020000040000fa
:040214004c03000097
:020000040000fa
:040218004c03000093
:020000040000fa
:04021c004c0300008f
:020000040000fa
:040220004c0300008b
:020000040000fa
:040224004c03000087
:020000040000fa
:040228004c03000083
:020000040000fa
:04022c004c0300007f
:020000040000fa
:040230004c0300007b
:020000040000fa
:0402340004030000bf
:020000040000fa
:040238004c03000073
:020000040000fa
:04023c004c0300006f
:020000040000fa
:040240004c0300006b
:020000040000fa
:040244004c03000067
:020000040000fa
:040248004c03000063
:020000040000fa
:04024c004c0300005f
:020000040000fa
:040250004c0300005b
:020000040000fa
:040254004c03000057
:020000040000fa
:040258004c03000053
:020000040000fa
:04025c004c0300004f
:020000040000fa
:040260004c0300004b
:020000040000fa
:040264004c03000047
:020000040000fa
:040268004c03000043
:020000040000fa
:04026c004c0300003f
:020000040000fa
:040270004c0300003b
:020000040000fa
:040274002003000063
:020000040000fa
:040278004c03000033
:020000040000fa
:04027c004c0300002f
:020000040000fa
:040280004c0300002b
:020000040000fa
:040284004c03000027
:020000040000fa
:040288004c03000023
:020000040000fa
:04028c004c0300001f
:020000040000fa
:040290004c0300001b
:020000040000fa
:040294004c03000017
:020000040000fa
:040298004c03000013
:020000040000fa
:04029c004c0300000f
:020000040000fa
:0402a0004c0300000b
:020000040000fa
:0402a4004c03000007
:020000040000fa
:0402a8004c03000003
:020000040000fa
:0402ac004c030000ff
:020000040000fa
:0402b0004c030000fb
:020000040000fa
:0402b4004c030000f7
:020000040000fa
:0402b8004c030000f3
:020000040000fa
:0402bc004c030000ef
:020000040000fa
:0402c0004c030000eb
:020000040000fa
:0402c4004c030000e7
:020000040000fa
:0402c8004c030000e3
:020000040000fa
:0402cc004c030000df
:020000040000fa
:0402d0004c030000db
:020000040000fa
:0402d4004c030000d7
:020000040000fa
:0402d8004c030000d3
:020000040000fa
:0402dc004c030000cf
:020000040000fa
:0402e0004c030000cb
:020000040000fa
:0402e4004c030000c7
:020000040000fa
:0402e8004c030000c3
:020000040000fa
:0402ec004c030000bf
:020000040000fa
:0402f0004c030000bb
:020000040000fa
:0402f4004c030000b7
:020000040000fa
:0402f8004c030000b3
:020000040000fa
:0402fc004c030000af
:020000040000fa
:040300004c030000aa
:020000040000fa
:040304004c030000a6
:020000040000fa
:040308004c030000a2
:020000040000fa
:04030c004c0300009e
:020000040000fa
:040310004c0300009a
:020000040000fa
:040314004c03000096
:020000040000fa
:040318004c03000092
:020000040000fa
:04031c004c0300008e
:020000040000fa
:040320004c0300008a
:020000040000fa
:040324004c03000086
:020000040000fa
:040328004c03000082
:020000040000fa
:04032c004c0300007e
:020000040000fa
:040330004c0300007a
:020000040000fa
:040334004c03000076
:020000040000fa
:040338004c03000072
:020000040000fa
:04033c004c0300006e
:020000040000fa
:040340004c0300006a
:020000040000fa
:040344004c03000066
:020000040000fa
:040348004c03000062
:020000040000fa
:04034c004c0300005e
:020000040000fa
:040350004c0300005a
:020000040000fa
:040354004c03000056
:020000040000fa
:040358004c03000052
:020000040000fa
:04035c004c0300004e
:020000040000fa
:040360004c0300004a
:020000040000fa
:040364004c03000046
:020000040000fa
:040368004c03000042
:020000040000fa
:04036c004c0300003e
:020000040000fa
:040370004c0300003a
:020000040000fa
:040374004c03000036
:020000040000fa
:040378004c03000032
:020000040000fa
:04037c004c0300002e
:020000040000fa
:040380004c0300002a
:020000040000fa
:040384004c03000026
:020000040000fa
:040388004c03000022
:020000040000fa
:04038c004c0300001e
:020000040000fa
:040390004c0300001a
:020000040000fa
:040394004c03000016
:020000040000fa
:040398004c03000012
:020000040000fa
:04039c004c0300000e
:020000040000fa
:0403a0004c0300000a
:020000040000fa
:0403a4004c03000006
:020000040000fa
:0403a8004c03000002
:020000040000fa
:0403ac004c030000fe
:020000040000fa
:0403b0004c030000fa
:020000040000fa
:0403b4004c030000f6
:020000040000fa
:0403b8004c030000f2
:020000040000fa
:0403bc004c030000ee
:020000040000fa
:0403c0004c030000ea
:020000040000fa
:0403c4004c030000e6
:020000040000fa
:0403c8004c030000e2
:020000040000fa
:0403cc004c030000de
:020000040000fa
:0403d0004c030000da
:020000040000fa
:0403d4004c030000d6
:020000040000fa
:0403d8004c030000d2
:020000040000fa
:0403dc004c030000ce
:020000040000fa
:0403e0004c030000ca
:020000040000fa
:0403e4004c030000c6
:020000040000fa
:0403e8004c030000c2
:020000040000fa
:0403ec004c030000be
:020000040000fa
:0403f0004c030000ba
:020000040000fa
:0403f4004c030000b6
:020000040000fa
:0403f8004c030000b2
:020000040000fa
:0403fc004c030000ae
:020000040000fa
:100400002f8020000e7f22000e01880000000000d7
:10041000000020000000e000020032000001200087
:1004200020028800140007009d0007000000e00083
:1004300003003a00c06c20000100200002003700d9
:100440000000200001002000810f70000100320038
:1004500014000700000020000000e000020032004d
:100460000000020000000000d805020000000000ab
:100470000040da000000fe004440a9000003200014
:100480000000e000030032000020200090018800fe
:100490004440a800000006008a1f78008b1f7800e7
:1004a00000000600a1028800800478000000eb0034
:1004b0001f003700e284440054a0b4009905ba003c
:1004c000e284440054a0b4009906ba00e2844400d7
:1004d00054a0b4000006eb00476fde00fd07b20039
:1004e000ae018800636ce10003003a00eaff0700f8
:1004f0000000eb000e003700606ce10008003a00dd
:10050000004deb000a05e800020039003420ec0041
:100510000af0a0008b05e900f9ff3e000400370057
:100520006168e100010032000086eb000b0007006b
:1005300019c7ba001905ba000e04e00003003a001a
:100540000a00e000dbff3a0000000600fe07b200f0
:10055000ae0288008a047800f5ff37000cd0a300b3
:10056000e20f4d001c00390089027800354dba00b9
:100570000a05e800020039003420ec000af0a0006f
:100580008b05e9000f003200254dba000a05e8008e
:10059000020039003420ec000af0a0008b05e900cd
:1005a000080032000c00e0000600320015cdba0051
:1005b0000a05e800020039003420ec000af0a0002f
:1005c0008b05e9008984e80054a0b4000b00e0002a
:1005d000e2ff3a00000006009902ba00055d7800cb
:1005e0008b05e900f7ff3200c82ade00055d7800c0
:1005f0008b05e900f3ff32000c00e000f1ff320050
:1006000019ddba00eeff37003200f8003400f800c0
:10061000881f780018002000a8018800082020000a
:10062000980188004f0478000000fa008460a90057
:100630000080fa003400f9003200f90000400600a2
:10064000809fbe003200f8003400f8001000200047
:10065000a001880000202000900188000000fa001e
:10066000b10c800000102000008060000000e0005d
:100670000300320010c0b30000e8b7006480a90096
:100680008660a9000080fa003400f9003200f90009
:100690004f00be00004006000040da000000fe00ef
:0406a0000000050051
:020000040000fa
:1006a400504900004332000034200000426f000033
:1006b4006172000064200000763200002e330000d6
:1006c40044690000636500007320000020200000de
:1006d400202d00002d3e00002020000020200000de
:1006e400303100003233000034350000363700006a
:1006f40038390000414200004344000045460000f0
:020000040000fa
:100704002200fa00e2004700223528001f000900f9
:10071400b258780080c0b300810007000000eb00ed
:10072400000f7800010037001e0fe800f0e72300f7
:100734009e007800808f5000fbff3600c0c3b300da
:10074400770007000000eb00000f7800010037007d
:100754001e0fe800f0e723009e007800808f500011
:10076400fbff3600c0c3b3006d0007000000eb00c0
:10077400000f7800010037001e0fe800f0e72300a7
:100784009e007800808f5000fbff3600c0c3b3008a
:10079400630007000000eb00000f78000100370041
:1007a4001e0fe800f0e723009e007800808f5000c1
:1007b400fbff3600c0c3b300590007000000eb0084
:1007c400000f7800010037001e0fe800f0e7230057
:1007d4009e007800808f5000fbff3600c0c2b3003b
:1007e4004f0007000000eb00000f78000100370005
:1007f4001e0fe800f0e723009e007800808f500071
:10080400fbff360080c2b300370007000000eb0096
:10081400000f7800010037001e0fe800f0e7230006
:100824009e007800808f5000fbff3600e0c0b300cc
:100834002d0007000000eb00000f780001003700d6
:100844001e0fe800f0e723009e007800808f500020
:10085400fbff360010c0b300230007000000eb00cc
:10086400000f7800010037001e0fe800f0e72300b6
:100874009e007800808f5000fbff36000000eb00e4
:10088400000f7800050037000e80e8001e004000cd
:10089400104078001b0007001e0fe8001e007800bf
:1008a400ef0f5000f8ff360000ccb3000e00070035
:1008b4000000eb00000f7800060037009e0078006f
:1008c4007080400000004700204090000d000700a9
:1008d4001e0fe8001e007800ef0f5000f7ff3600ef
:1008e4000080fa00000006000200fa00004f7800c1
:1008f400c1c0b3001e407800160007000080fa0053
:10090400000006000200fa00004f7800d1c0b300d6
:100914001e4078000f0007000080fa000000060067
:100924000200fa00004f780029000700e0042000cc
:10093400420007001e80fb00400007001e24a100a7
:100944001e80fb003d0007002a0007000080fa001b
:10095400000006000400fa00204798003147980080
:100964001b000700e004200034000700ae409000a4
:10097400014f780000cfb3001e4f60003e4090004e
:100984001e4f70001e80fb002c0007001e24a100d7
:100994001e80fb0029000700ae40900040002000ac
:1009a4000008dd00004f78003e4090001e4f7000ac
:1009b4001e80fb00210007001e24a1001e80fb00f6
:1009c4001e0007000b0007000080fa00000006006c
:1009d4000000fa00f002a800000000008017800068
:1009e400610060000000e000fcff3a000080fa00b3
:1009f400000006000000fa00f042a8000000000019
:100a040080178000640060000000e000fcff3a00f2
:100a14000080fa00000006000000fa00f022a8009e
:100a24000000000080178000620060000000e00009
:100a3400fcff3a000080fa00000006000200fa0001
:100a4400000f78009e007800611788000000000005
:100a5400a0178000610060000000e000fcff3a0085
:100a640000000000a1178000000024000080600046
:100a74000000e000fbff3a00a01780000080ea00bd
:100a84004f00de00004078000080fa0000000600fd
:100a94000000fa00f062a800000000008017800047
:100aa400680060000000e000fcff3a00501780007e
:100ab400004078000080fa00000006000000fa0000
:100ac400f0a2a900f082a8000000000080178000b6
:100ad400700060000000e000fcff3a000080fa00b3
:100ae400000006000000fa00f0a2a800f082a800ae
:100af4000000000080178000700060000000e0002b
:100b0400fcff3a000080fa00000006000400fa002e
:100b1400a5e1a800a4e1a800a4c1a900a4a1a8007b
:100b2400a481a900a501a8000000eb00000f780033
:100b3400010037001e0fe800f0e124009e00780059
:100b4400808f5000fbff3400210d80000010200036
:100b5400008060000000e00011003a00800d800079
:100b6400100798001e0090000000e00003003d0004
:100b74001e0090000000ea00100798009e009000fc
:100b84007000200000017800110009008200d800e4
:100b94008000fd00100798001e009000010037003f
:100ba4000000eb000080fa00000006000400fa00d8
:100bb400540007005c000700670007006f0007008f
:100bc400cffe0700010037000000000000c8bf008e
:100bd4000004e000fcff3200ccff0700000f7800a7
:100be4001e0078000000e000fbff3200c7ff070092
:100bf400100798001e0090000000e000fbff320088
:100c04000068ef00d0ccb30037ff07001e00780067
:100c1400004078000043b0003aff0700f0ccb30076
:100c240031ff07001e009000004078000043b00030
:100c340034ff07006480a800e4ff37000400fa00d2
:100c440000c1b300304798000000eb00000f7800ab
:100c5400010037001e0fe800703e20009e0078005f
:100c6400808f5000fbff34000040eb0020479800c9
:100c7400140037009881a9000000eb00000f7800f1
:100c8400010037001e0fe800300620009e007800a7
:100c9400808f5000fbff3400610c800000102000a6
:100ca400008060000000e00002003a00ae409000c6
:100cb400314798009881a8002e4090000040e80039
:100cc400204798002e409000ef4f5000e9ff360077
:100cd4000000eb00000f7800010037001e0fe80051
:100ce400f07022009e007800808f5000fbff3400db
:100cf4008660a90064c0a8003e4090000080fa000d
:100d0400000006000000fa009881a8008521a900cf
:100d14008541a9009481a9008121a9008141a900ec
:100d24000080fa00000006000000fa005082a800cb
:100d340050a2a8005022a9004c22ef0010f4200079
:100d4400701288008460a9009460a80051e2a80091
:100d54000080fa00000006000000fa009241a90099
:100d64009261a9007002200070178800f142a90066
:100d7400f1e2a8000080fa00000006000000fa007a
:100d84006480a8008660a9009660a8000080fa002c
:040d94000000060055
:020000040000fa
:100d980000080000020000008000000000000000c1
:020000040000fa
:020000040002f8
:04affc003f3f0000d3
:00000001FF
